{
  "contractName": "KeyValueStore",
  "abi": [
    {
      "constant": true,
      "inputs": [
        {
          "name": "",
          "type": "bytes32"
        }
      ],
      "name": "data",
      "outputs": [
        {
          "name": "",
          "type": "bytes"
        }
      ],
      "payable": false,
      "stateMutability": "view",
      "type": "function"
    },
    {
      "constant": true,
      "inputs": [
        {
          "name": "",
          "type": "address"
        }
      ],
      "name": "registration",
      "outputs": [
        {
          "name": "",
          "type": "string"
        }
      ],
      "payable": false,
      "stateMutability": "view",
      "type": "function"
    },
    {
      "constant": true,
      "inputs": [
        {
          "name": "",
          "type": "bytes32"
        },
        {
          "name": "",
          "type": "address"
        }
      ],
      "name": "keys",
      "outputs": [
        {
          "name": "",
          "type": "bytes"
        }
      ],
      "payable": false,
      "stateMutability": "view",
      "type": "function"
    },
    {
      "constant": true,
      "inputs": [
        {
          "name": "",
          "type": "address"
        }
      ],
      "name": "registered",
      "outputs": [
        {
          "name": "",
          "type": "bool"
        }
      ],
      "payable": false,
      "stateMutability": "view",
      "type": "function"
    },
    {
      "constant": true,
      "inputs": [
        {
          "name": "",
          "type": "bytes32"
        }
      ],
      "name": "claimed",
      "outputs": [
        {
          "name": "",
          "type": "bool"
        }
      ],
      "payable": false,
      "stateMutability": "view",
      "type": "function"
    },
    {
      "constant": false,
      "inputs": [
        {
          "name": "account",
          "type": "address"
        },
        {
          "name": "accessor",
          "type": "bytes32"
        },
        {
          "name": "encryptedData",
          "type": "bytes"
        },
        {
          "name": "encryptedKey",
          "type": "bytes"
        }
      ],
      "name": "create",
      "outputs": [],
      "payable": false,
      "stateMutability": "nonpayable",
      "type": "function"
    },
    {
      "constant": false,
      "inputs": [
        {
          "name": "account",
          "type": "address"
        },
        {
          "name": "accessor",
          "type": "bytes32"
        }
      ],
      "name": "claim",
      "outputs": [],
      "payable": false,
      "stateMutability": "nonpayable",
      "type": "function"
    },
    {
      "constant": false,
      "inputs": [
        {
          "name": "accessor",
          "type": "bytes32"
        },
        {
          "name": "encryptedData",
          "type": "bytes"
        }
      ],
      "name": "write",
      "outputs": [],
      "payable": false,
      "stateMutability": "nonpayable",
      "type": "function"
    },
    {
      "constant": false,
      "inputs": [
        {
          "name": "accessor",
          "type": "bytes32"
        },
        {
          "name": "account",
          "type": "address"
        }
      ],
      "name": "addOwner",
      "outputs": [
        {
          "name": "",
          "type": "uint8"
        }
      ],
      "payable": false,
      "stateMutability": "nonpayable",
      "type": "function"
    },
    {
      "constant": false,
      "inputs": [
        {
          "name": "accessor",
          "type": "bytes32"
        },
        {
          "name": "account",
          "type": "address"
        }
      ],
      "name": "addAdmin",
      "outputs": [
        {
          "name": "",
          "type": "uint8"
        }
      ],
      "payable": false,
      "stateMutability": "nonpayable",
      "type": "function"
    },
    {
      "constant": false,
      "inputs": [
        {
          "name": "accessor",
          "type": "bytes32"
        },
        {
          "name": "account",
          "type": "address"
        }
      ],
      "name": "grantWriteAccess",
      "outputs": [
        {
          "name": "",
          "type": "uint8"
        }
      ],
      "payable": false,
      "stateMutability": "nonpayable",
      "type": "function"
    },
    {
      "constant": false,
      "inputs": [
        {
          "name": "accessor",
          "type": "bytes32"
        },
        {
          "name": "account",
          "type": "address"
        }
      ],
      "name": "grantReadAccess",
      "outputs": [
        {
          "name": "",
          "type": "uint8"
        }
      ],
      "payable": false,
      "stateMutability": "nonpayable",
      "type": "function"
    },
    {
      "constant": false,
      "inputs": [
        {
          "name": "accessor",
          "type": "bytes32"
        },
        {
          "name": "account",
          "type": "address"
        },
        {
          "name": "encryptedKey",
          "type": "bytes"
        }
      ],
      "name": "issueEncryptedKey",
      "outputs": [],
      "payable": false,
      "stateMutability": "nonpayable",
      "type": "function"
    },
    {
      "constant": false,
      "inputs": [
        {
          "name": "accessor",
          "type": "bytes32"
        },
        {
          "name": "account",
          "type": "address"
        }
      ],
      "name": "removeOwner",
      "outputs": [
        {
          "name": "",
          "type": "uint8"
        }
      ],
      "payable": false,
      "stateMutability": "nonpayable",
      "type": "function"
    },
    {
      "constant": false,
      "inputs": [
        {
          "name": "accessor",
          "type": "bytes32"
        },
        {
          "name": "account",
          "type": "address"
        }
      ],
      "name": "removeAdmin",
      "outputs": [
        {
          "name": "",
          "type": "uint8"
        }
      ],
      "payable": false,
      "stateMutability": "nonpayable",
      "type": "function"
    },
    {
      "constant": false,
      "inputs": [
        {
          "name": "accessor",
          "type": "bytes32"
        },
        {
          "name": "account",
          "type": "address"
        }
      ],
      "name": "revokeWriteAccess",
      "outputs": [
        {
          "name": "",
          "type": "uint8"
        }
      ],
      "payable": false,
      "stateMutability": "nonpayable",
      "type": "function"
    },
    {
      "constant": false,
      "inputs": [
        {
          "name": "accessor",
          "type": "bytes32"
        },
        {
          "name": "account",
          "type": "address"
        }
      ],
      "name": "revokeReadAccess",
      "outputs": [
        {
          "name": "",
          "type": "uint8"
        }
      ],
      "payable": false,
      "stateMutability": "nonpayable",
      "type": "function"
    },
    {
      "constant": false,
      "inputs": [
        {
          "name": "publicKey",
          "type": "string"
        }
      ],
      "name": "setRegistration",
      "outputs": [],
      "payable": false,
      "stateMutability": "nonpayable",
      "type": "function"
    },
    {
      "constant": false,
      "inputs": [],
      "name": "unRegister",
      "outputs": [],
      "payable": false,
      "stateMutability": "nonpayable",
      "type": "function"
    },
    {
      "constant": false,
      "inputs": [
        {
          "name": "accessor",
          "type": "bytes32"
        }
      ],
      "name": "remove",
      "outputs": [],
      "payable": false,
      "stateMutability": "nonpayable",
      "type": "function"
    },
    {
      "constant": true,
      "inputs": [
        {
          "name": "accessor",
          "type": "bytes32"
        },
        {
          "name": "account",
          "type": "address"
        }
      ],
      "name": "isOwner",
      "outputs": [
        {
          "name": "",
          "type": "bool"
        }
      ],
      "payable": false,
      "stateMutability": "view",
      "type": "function"
    },
    {
      "constant": true,
      "inputs": [
        {
          "name": "accessor",
          "type": "bytes32"
        },
        {
          "name": "account",
          "type": "address"
        }
      ],
      "name": "isAdmin",
      "outputs": [
        {
          "name": "",
          "type": "bool"
        }
      ],
      "payable": false,
      "stateMutability": "view",
      "type": "function"
    },
    {
      "constant": true,
      "inputs": [
        {
          "name": "accessor",
          "type": "bytes32"
        },
        {
          "name": "account",
          "type": "address"
        }
      ],
      "name": "canWrite",
      "outputs": [
        {
          "name": "",
          "type": "bool"
        }
      ],
      "payable": false,
      "stateMutability": "view",
      "type": "function"
    },
    {
      "constant": true,
      "inputs": [
        {
          "name": "accessor",
          "type": "bytes32"
        },
        {
          "name": "account",
          "type": "address"
        }
      ],
      "name": "canRead",
      "outputs": [
        {
          "name": "",
          "type": "bool"
        }
      ],
      "payable": false,
      "stateMutability": "view",
      "type": "function"
    },
    {
      "constant": true,
      "inputs": [
        {
          "name": "accessor",
          "type": "bytes32"
        },
        {
          "name": "account",
          "type": "address"
        }
      ],
      "name": "getKey",
      "outputs": [
        {
          "name": "",
          "type": "bytes"
        }
      ],
      "payable": false,
      "stateMutability": "view",
      "type": "function"
    },
    {
      "constant": true,
      "inputs": [
        {
          "name": "accessor",
          "type": "bytes32"
        }
      ],
      "name": "getMembers",
      "outputs": [
        {
          "name": "",
          "type": "address[]"
        }
      ],
      "payable": false,
      "stateMutability": "view",
      "type": "function"
    }
  ],
  "bytecode": "0x608060405234801561001057600080fd5b5061292d806100206000396000f300608060405260043610610154576000357c0100000000000000000000000000000000000000000000000000000000900463ffffffff1680630147fb0c146101595780630840605a14610203578063178f7d81146102bf578063238765921461032a57806326d7b3b4146103955780632903b8ee146103ac5780632b9c190c146104765780633fb56671146104e15780634aca186f1461054a5780636419bcdb146105e15780636682edb61461064c578063788cb11b146106b75780637b641fbc1461072e57806388eea6f1146107b45780638f1ac1751461081f57806395bc2673146108885780639a387ce6146108b9578063b2dd5c0714610924578063b75dbb8e1461097f578063baf81f65146109e8578063c8622c2414610ab2578063c9ae0cec14610b03578063cc3c0f0614610be0578063cd98de8514610c29578063e06c193914610c92578063ecd53bf314610cfd575b600080fd5b34801561016557600080fd5b506101886004803603810190808035600019169060200190929190505050610d66565b6040518080602001828103825283818151815260200191508051906020019080838360005b838110156101c85780820151818401526020810190506101ad565b50505050905090810190601f1680156101f55780820380516001836020036101000a031916815260200191505b509250505060405180910390f35b34801561020f57600080fd5b50610244600480360381019080803573ffffffffffffffffffffffffffffffffffffffff169060200190929190505050610e16565b6040518080602001828103825283818151815260200191508051906020019080838360005b83811015610284578082015181840152602081019050610269565b50505050905090810190601f1680156102b15780820380516001836020036101000a031916815260200191505b509250505060405180910390f35b3480156102cb57600080fd5b5061030e6004803603810190808035600019169060200190929190803573ffffffffffffffffffffffffffffffffffffffff169060200190929190505050610ec6565b604051808260ff1660ff16815260200191505060405180910390f35b34801561033657600080fd5b506103796004803603810190808035600019169060200190929190803573ffffffffffffffffffffffffffffffffffffffff169060200190929190505050610f7a565b604051808260ff1660ff16815260200191505060405180910390f35b3480156103a157600080fd5b506103aa610fa3565b005b3480156103b857600080fd5b506103fb6004803603810190808035600019169060200190929190803573ffffffffffffffffffffffffffffffffffffffff169060200190929190505050611048565b6040518080602001828103825283818151815260200191508051906020019080838360005b8381101561043b578082015181840152602081019050610420565b50505050905090810190601f1680156104685780820380516001836020036101000a031916815260200191505b509250505060405180910390f35b34801561048257600080fd5b506104c56004803603810190808035600019169060200190929190803573ffffffffffffffffffffffffffffffffffffffff169060200190929190505050611105565b604051808260ff1660ff16815260200191505060405180910390f35b3480156104ed57600080fd5b506105306004803603810190808035600019169060200190929190803573ffffffffffffffffffffffffffffffffffffffff16906020019092919050505061117e565b604051808215151515815260200191505060405180910390f35b34801561055657600080fd5b506105df6004803603810190808035600019169060200190929190803573ffffffffffffffffffffffffffffffffffffffff169060200190929190803590602001908201803590602001908080601f01602080910402602001604051908101604052809392919081815260200183838082843782019150505050505091929192905050506111f6565b005b3480156105ed57600080fd5b506106306004803603810190808035600019169060200190929190803573ffffffffffffffffffffffffffffffffffffffff169060200190929190505050611230565b604051808260ff1660ff16815260200191505060405180910390f35b34801561065857600080fd5b5061069b6004803603810190808035600019169060200190929190803573ffffffffffffffffffffffffffffffffffffffff169060200190929190505050611259565b604051808260ff1660ff16815260200191505060405180910390f35b3480156106c357600080fd5b5061072c6004803603810190808035600019169060200190929190803590602001908201803590602001908080601f0160208091040260200160405190810160405280939291908181526020018383808284378201915050505050509192919290505050611282565b005b34801561073a57600080fd5b5061075d60048036038101908080356000191690602001909291905050506112a5565b6040518080602001828103825283818151815260200191508051906020019060200280838360005b838110156107a0578082015181840152602081019050610785565b505050509050019250505060405180910390f35b3480156107c057600080fd5b506108036004803603810190808035600019169060200190929190803573ffffffffffffffffffffffffffffffffffffffff169060200190929190505050611351565b604051808260ff1660ff16815260200191505060405180910390f35b34801561082b57600080fd5b5061086e6004803603810190808035600019169060200190929190803573ffffffffffffffffffffffffffffffffffffffff169060200190929190505050611405565b604051808215151515815260200191505060405180910390f35b34801561089457600080fd5b506108b7600480360381019080803560001916906020019092919050505061147d565b005b3480156108c557600080fd5b506109086004803603810190808035600019169060200190929190803573ffffffffffffffffffffffffffffffffffffffff16906020019092919050505061161a565b604051808260ff1660ff16815260200191505060405180910390f35b34801561093057600080fd5b50610965600480360381019080803573ffffffffffffffffffffffffffffffffffffffff169060200190929190505050611693565b604051808215151515815260200191505060405180910390f35b34801561098b57600080fd5b506109ce6004803603810190808035600019169060200190929190803573ffffffffffffffffffffffffffffffffffffffff1690602001909291905050506116b3565b604051808215151515815260200191505060405180910390f35b3480156109f457600080fd5b50610a376004803603810190808035600019169060200190929190803573ffffffffffffffffffffffffffffffffffffffff16906020019092919050505061172b565b6040518080602001828103825283818151815260200191508051906020019080838360005b83811015610a77578082015181840152602081019050610a5c565b50505050905090810190601f168015610aa45780820380516001836020036101000a031916815260200191505b509250505060405180910390f35b348015610abe57600080fd5b50610b01600480360381019080803573ffffffffffffffffffffffffffffffffffffffff1690602001909291908035600019169060200190929190505050611826565b005b348015610b0f57600080fd5b50610bde600480360381019080803573ffffffffffffffffffffffffffffffffffffffff1690602001909291908035600019169060200190929190803590602001908201803590602001908080601f0160208091040260200160405190810160405280939291908181526020018383808284378201915050505050509192919290803590602001908201803590602001908080601f0160208091040260200160405190810160405280939291908181526020018383808284378201915050505050509192919290505050611869565b005b348015610bec57600080fd5b50610c0f60048036038101908080356000191690602001909291905050506118b0565b604051808215151515815260200191505060405180910390f35b348015610c3557600080fd5b50610c786004803603810190808035600019169060200190929190803573ffffffffffffffffffffffffffffffffffffffff1690602001909291905050506118d0565b604051808215151515815260200191505060405180910390f35b348015610c9e57600080fd5b50610ce16004803603810190808035600019169060200190929190803573ffffffffffffffffffffffffffffffffffffffff169060200190929190505050611948565b604051808260ff1660ff16815260200191505060405180910390f35b348015610d0957600080fd5b50610d64600480360381019080803590602001908201803590602001908080601f0160208091040260200160405190810160405280939291908181526020018383808284378201915050505050509192919290505050611971565b005b60006020528060005260406000206000915090508054600181600116156101000203166002900480601f016020809104026020016040519081016040528092919081815260200182805460018160011615610100020316600290048015610e0e5780601f10610de357610100808354040283529160200191610e0e565b820191906000526020600020905b815481529060010190602001808311610df157829003601f168201915b505050505081565b60036020528060005260406000206000915090508054600181600116156101000203166002900480601f016020809104026020016040519081016040528092919081815260200182805460018160011615610100020316600290048015610ebe5780601f10610e9357610100808354040283529160200191610ebe565b820191906000526020600020905b815481529060010190602001808311610ea157829003601f168201915b505050505081565b60008173ffffffffffffffffffffffffffffffffffffffff163373ffffffffffffffffffffffffffffffffffffffff1614151515610f0357600080fd5b610f0d83836118d0565b1515610f1857600080fd5b610f2283836116b3565b80610f335750610f32838361117e565b5b15610f5257610f42833361117e565b1515610f4d57600080fd5b610f68565b610f5c83336116b3565b1515610f6757600080fd5b5b610f728383611a20565b905092915050565b6000610f86833361117e565b1515610f9157600080fd5b610f9b8383611aaf565b905092915050565b600360003373ffffffffffffffffffffffffffffffffffffffff1673ffffffffffffffffffffffffffffffffffffffff1681526020019081526020016000206000610fee91906126ff565b6000600460003373ffffffffffffffffffffffffffffffffffffffff1673ffffffffffffffffffffffffffffffffffffffff16815260200190815260200160002060006101000a81548160ff021916908315150217905550565b6002602052816000526040600020602052806000526040600020600091509150508054600181600116156101000203166002900480601f0160208091040260200160405190810160405280929190818152602001828054600181600116156101000203166002900480156110fd5780601f106110d2576101008083540402835291602001916110fd565b820191906000526020600020905b8154815290600101906020018083116110e057829003601f168201915b505050505081565b60008173ffffffffffffffffffffffffffffffffffffffff163373ffffffffffffffffffffffffffffffffffffffff161415151561114257600080fd5b61114c838361117e565b151561115757600080fd5b611161833361117e565b151561116c57600080fd5b6111768383611bb5565b905092915050565b60008060056000856000191660001916815260200190815260200160002060000160008473ffffffffffffffffffffffffffffffffffffffff1673ffffffffffffffffffffffffffffffffffffffff16815260200190815260200160002060009054906101000a900460ff1660ff1611905092915050565b61120083336116b3565b151561120b57600080fd5b61121583836118d0565b151561122057600080fd5b61122b838383611cad565b505050565b600061123c833361117e565b151561124757600080fd5b6112518383611d1f565b905092915050565b600061126583336116b3565b151561127057600080fd5b61127a8383611e25565b905092915050565b61128c8233611405565b151561129757600080fd5b6112a18282611f2b565b5050565b606060056000836000191660001916815260200190815260200160002060040180548060200260200160405190810160405280929190818152602001828054801561134557602002820191906000526020600020905b8160009054906101000a900473ffffffffffffffffffffffffffffffffffffffff1673ffffffffffffffffffffffffffffffffffffffff16815260200190600101908083116112fb575b50505050509050919050565b60008173ffffffffffffffffffffffffffffffffffffffff163373ffffffffffffffffffffffffffffffffffffffff161415151561138e57600080fd5b6113988383611405565b15156113a357600080fd5b6113ad83836116b3565b806113be57506113bd838361117e565b5b156113dd576113cd833361117e565b15156113d857600080fd5b6113f3565b6113e783336116b3565b15156113f257600080fd5b5b6113fd8383611f5e565b905092915050565b60008060056000856000191660001916815260200190815260200160002060020160008473ffffffffffffffffffffffffffffffffffffffff1673ffffffffffffffffffffffffffffffffffffffff16815260200190815260200160002060009054906101000a900460ff1660ff1611905092915050565b60008061148a833361117e565b151561149557600080fd5b600080846000191660001916815260200190815260200160002060006114bb9190612747565b600060016000856000191660001916815260200190815260200160002060006101000a81548160ff021916908315150217905550600091505b600560008460001916600019168152602001908152602001600020600401805490508210156115e6576005600084600019166000191681526020019081526020016000206004018281548110151561154857fe5b9060005260206000200160009054906101000a900473ffffffffffffffffffffffffffffffffffffffff16905060026000846000191660001916815260200190815260200160002060008273ffffffffffffffffffffffffffffffffffffffff1673ffffffffffffffffffffffffffffffffffffffff16815260200190815260200160002060006115d99190612747565b81806001019250506114f4565b6005600084600019166000191681526020019081526020016000206000600482016000611613919061278f565b5050505050565b60008173ffffffffffffffffffffffffffffffffffffffff163373ffffffffffffffffffffffffffffffffffffffff161415151561165757600080fd5b61166183836116b3565b151561166c57600080fd5b611676833361117e565b151561168157600080fd5b61168b8383612061565b905092915050565b60046020528060005260406000206000915054906101000a900460ff1681565b60008060056000856000191660001916815260200190815260200160002060010160008473ffffffffffffffffffffffffffffffffffffffff1673ffffffffffffffffffffffffffffffffffffffff16815260200190815260200160002060009054906101000a900460ff1660ff1611905092915050565b606060026000846000191660001916815260200190815260200160002060008373ffffffffffffffffffffffffffffffffffffffff1673ffffffffffffffffffffffffffffffffffffffff1681526020019081526020016000208054600181600116156101000203166002900480601f0160208091040260200160405190810160405280929190818152602001828054600181600116156101000203166002900480156118195780601f106117ee57610100808354040283529160200191611819565b820191906000526020600020905b8154815290600101906020018083116117fc57829003601f168201915b5050505050905092915050565b60016000826000191660001916815260200190815260200160002060009054906101000a900460ff1615151561185b57600080fd5b6118658282612164565b5050565b60016000846000191660001916815260200190815260200160002060009054906101000a900460ff1615151561189e57600080fd5b6118aa848484846121a6565b50505050565b60016020528060005260406000206000915054906101000a900460ff1681565b60008060056000856000191660001916815260200190815260200160002060030160008473ffffffffffffffffffffffffffffffffffffffff1673ffffffffffffffffffffffffffffffffffffffff16815260200190815260200160002060009054906101000a900460ff1660ff1611905092915050565b600061195483336116b3565b151561195f57600080fd5b61196983836121cb565b905092915050565b80600360003373ffffffffffffffffffffffffffffffffffffffff1673ffffffffffffffffffffffffffffffffffffffff16815260200190815260200160002090805190602001906119c49291906127b0565b506001600460003373ffffffffffffffffffffffffffffffffffffffff1673ffffffffffffffffffffffffffffffffffffffff16815260200190815260200160002060006101000a81548160ff02191690831515021790555050565b600080611a2d84846122d1565b905060056000856000191660001916815260200190815260200160002060030160008473ffffffffffffffffffffffffffffffffffffffff1673ffffffffffffffffffffffffffffffffffffffff16815260200190815260200160002060006101000a81549060ff0219169055611aa48484611f5e565b508091505092915050565b6000611abb838361117e565b15611b305760056000846000191660001916815260200190815260200160002060000160008373ffffffffffffffffffffffffffffffffffffffff1673ffffffffffffffffffffffffffffffffffffffff16815260200190815260200160002060009054906101000a900460ff169050611baf565b611b3a8383611d1f565b60056000856000191660001916815260200190815260200160002060000160008473ffffffffffffffffffffffffffffffffffffffff1673ffffffffffffffffffffffffffffffffffffffff16815260200190815260200160002060006101000a81548160ff021916908360ff160217905590505b92915050565b60008060056000856000191660001916815260200190815260200160002060000160008473ffffffffffffffffffffffffffffffffffffffff1673ffffffffffffffffffffffffffffffffffffffff16815260200190815260200160002060009054906101000a900460ff16905060018160ff161015611c3757809150611ca6565b60056000856000191660001916815260200190815260200160002060000160008473ffffffffffffffffffffffffffffffffffffffff1673ffffffffffffffffffffffffffffffffffffffff16815260200190815260200160002060006101000a81549060ff02191690558091505b5092915050565b8060026000856000191660001916815260200190815260200160002060008473ffffffffffffffffffffffffffffffffffffffff1673ffffffffffffffffffffffffffffffffffffffff1681526020019081526020016000209080519060200190611d19929190612830565b50505050565b6000611d2b83836116b3565b15611da05760056000846000191660001916815260200190815260200160002060010160008373ffffffffffffffffffffffffffffffffffffffff1673ffffffffffffffffffffffffffffffffffffffff16815260200190815260200160002060009054906101000a900460ff169050611e1f565b611daa83836121cb565b60056000856000191660001916815260200190815260200160002060010160008473ffffffffffffffffffffffffffffffffffffffff1673ffffffffffffffffffffffffffffffffffffffff16815260200190815260200160002060006101000a81548160ff021916908360ff160217905590505b92915050565b6000611e3183836118d0565b15611ea65760056000846000191660001916815260200190815260200160002060030160008373ffffffffffffffffffffffffffffffffffffffff1673ffffffffffffffffffffffffffffffffffffffff16815260200190815260200160002060009054906101000a900460ff169050611f25565b611eb083836124a7565b60056000856000191660001916815260200190815260200160002060030160008473ffffffffffffffffffffffffffffffffffffffff1673ffffffffffffffffffffffffffffffffffffffff16815260200190815260200160002060006101000a81548160ff021916908360ff160217905590505b92915050565b8060008084600019166000191681526020019081526020016000209080519060200190611f59929190612830565b505050565b60008060056000856000191660001916815260200190815260200160002060020160008473ffffffffffffffffffffffffffffffffffffffff1673ffffffffffffffffffffffffffffffffffffffff16815260200190815260200160002060009054906101000a900460ff16905060018160ff161015611fe05780915061205a565b60056000856000191660001916815260200190815260200160002060020160008473ffffffffffffffffffffffffffffffffffffffff1673ffffffffffffffffffffffffffffffffffffffff16815260200190815260200160002060006101000a81549060ff02191690556120558484612061565b508091505b5092915050565b60008060056000856000191660001916815260200190815260200160002060010160008473ffffffffffffffffffffffffffffffffffffffff1673ffffffffffffffffffffffffffffffffffffffff16815260200190815260200160002060009054906101000a900460ff16905060018160ff1610156120e35780915061215d565b60056000856000191660001916815260200190815260200160002060010160008473ffffffffffffffffffffffffffffffffffffffff1673ffffffffffffffffffffffffffffffffffffffff16815260200190815260200160002060006101000a81549060ff02191690556121588484611bb5565b508091505b5092915050565b6001806000836000191660001916815260200190815260200160002060006101000a81548160ff0219169083151502179055506121a18183611aaf565b505050565b6121b08484612164565b6121bb838583611cad565b6121c58383611f2b565b50505050565b60006121d78383611405565b1561224c5760056000846000191660001916815260200190815260200160002060020160008373ffffffffffffffffffffffffffffffffffffffff1673ffffffffffffffffffffffffffffffffffffffff16815260200190815260200160002060009054906101000a900460ff1690506122cb565b6122568383611e25565b60056000856000191660001916815260200190815260200160002060020160008473ffffffffffffffffffffffffffffffffffffffff1673ffffffffffffffffffffffffffffffffffffffff16815260200190815260200160002060006101000a81548160ff021916908360ff160217905590505b92915050565b6000806000806000600182039350600560008860001916600019168152602001908152602001600020600401805490508460ff16101515612315576000945061249d565b60056000886000191660001916815260200190815260200160002092508260030160008773ffffffffffffffffffffffffffffffffffffffff1673ffffffffffffffffffffffffffffffffffffffff16815260200190815260200160002060009054906101000a900460ff169150826004018460ff1681548110151561239757fe5b9060005260206000200160006101000a81549073ffffffffffffffffffffffffffffffffffffffff021916905560008460ff161115612481578260040160018460040180549050038154811015156123eb57fe5b9060005260206000200160009054906101000a900473ffffffffffffffffffffffffffffffffffffffff16905080836004018560ff1681548110151561242d57fe5b9060005260206000200160006101000a81548173ffffffffffffffffffffffffffffffffffffffff021916908373ffffffffffffffffffffffffffffffffffffffff160217905550612480878784612532565b5b8260040180548091906001900361249891906128b0565b508194505b5050505092915050565b60006005600084600019166000191681526020019081526020016000206004018290806001815401808255809150509060018203906000526020600020016000909192909190916101000a81548173ffffffffffffffffffffffffffffffffffffffff021916908373ffffffffffffffffffffffffffffffffffffffff160217905550905092915050565b6000600560008560001916600019168152602001908152602001600020905061255b848461117e565b156125bb57818160000160008573ffffffffffffffffffffffffffffffffffffffff1673ffffffffffffffffffffffffffffffffffffffff16815260200190815260200160002060006101000a81548160ff021916908360ff1602179055505b6125c584846116b3565b1561262557818160010160008573ffffffffffffffffffffffffffffffffffffffff1673ffffffffffffffffffffffffffffffffffffffff16815260200190815260200160002060006101000a81548160ff021916908360ff1602179055505b61262f8484611405565b1561268f57818160020160008573ffffffffffffffffffffffffffffffffffffffff1673ffffffffffffffffffffffffffffffffffffffff16815260200190815260200160002060006101000a81548160ff021916908360ff1602179055505b61269984846118d0565b156126f957818160030160008573ffffffffffffffffffffffffffffffffffffffff1673ffffffffffffffffffffffffffffffffffffffff16815260200190815260200160002060006101000a81548160ff021916908360ff1602179055505b50505050565b50805460018160011615610100020316600290046000825580601f106127255750612744565b601f01602090049060005260206000209081019061274391906128dc565b5b50565b50805460018160011615610100020316600290046000825580601f1061276d575061278c565b601f01602090049060005260206000209081019061278b91906128dc565b5b50565b50805460008255906000526020600020908101906127ad91906128dc565b50565b828054600181600116156101000203166002900490600052602060002090601f016020900481019282601f106127f157805160ff191683800117855561281f565b8280016001018555821561281f579182015b8281111561281e578251825591602001919060010190612803565b5b50905061282c91906128dc565b5090565b828054600181600116156101000203166002900490600052602060002090601f016020900481019282601f1061287157805160ff191683800117855561289f565b8280016001018555821561289f579182015b8281111561289e578251825591602001919060010190612883565b5b5090506128ac91906128dc565b5090565b8154818355818111156128d7578183600052602060002091820191016128d691906128dc565b5b505050565b6128fe91905b808211156128fa5760008160009055506001016128e2565b5090565b905600a165627a7a7230582012a9363a9db9475bd6a602b0bf50baa4ffc76dab1bd46497bca76ce72a1690890029",
  "source": "pragma solidity ^0.4.24;\n\n// import \"./ArrayUtils.sol\";\n//\n\ncontract KeyValueStore {\n    mapping (bytes32 => bytes) public data;\n    mapping (bytes32 => bool) public claimed;\n\n    mapping (bytes32 => mapping (address => bytes)) public keys;\n\n    mapping (address => string) public registration;\n    mapping (address => bool) public registered;\n\n    struct MemberList {\n        mapping (address => uint8) owners;\n        mapping (address => uint8) admins;\n        mapping (address => uint8) writers;\n        mapping (address => uint8) readers;\n        address[] accounts;\n    }\n\n    mapping (bytes32 => MemberList) internal members;\n    //\n    // mapping (bytes32 => mapping (address => uint8)) public owners;\n    // mapping (bytes32 => mapping (address => uint8)) public admins;\n    // mapping (bytes32 => mapping (address => uint8)) public writers;\n    // mapping (bytes32 => mapping (address => uint8)) public readers;\n    // mapping (bytes32 => address[]) public members;\n\n    function create(address account, bytes32 accessor, bytes encryptedData, bytes encryptedKey) public {\n        require(!claimed[accessor]);\n        _create(account, accessor, encryptedData, encryptedKey);\n    }\n\n    function claim(address account, bytes32 accessor) public {\n        require(!claimed[accessor]);\n        _claim(account, accessor);\n    }\n\n    function write(bytes32 accessor, bytes encryptedData) public {\n        require(canWrite(accessor, msg.sender));\n        _write(accessor, encryptedData);\n    }\n\n    function addOwner(bytes32 accessor, address account /*, bytes encryptedKey */) public returns(uint8) {\n        require(isOwner(accessor, msg.sender));\n        // return _addOwner(accessor, account, encryptedKey);\n        return _addOwner(accessor, account);\n    }\n\n    function addAdmin(bytes32 accessor, address account /*, bytes encryptedKey */) public returns(uint8) {\n        require(isOwner(accessor, msg.sender));\n        // return _addAdmin(accessor, account, encryptedKey);\n        return _addAdmin(accessor, account);\n    }\n\n    function grantWriteAccess(bytes32 accessor, address account /*, bytes encryptedKey */) public returns(uint8) {\n        require(isAdmin(accessor, msg.sender));\n        // return _grantWriteAccess(accessor, account, encryptedKey);\n        return _grantWriteAccess(accessor, account);\n    }\n\n    function grantReadAccess(bytes32 accessor, address account /*, bytes encryptedKey */) public returns(uint8) {\n        require(isAdmin(accessor, msg.sender));\n        // return _grantReadAccess(accessor, account, encryptedKey);\n        return _grantReadAccess(accessor, account);\n    }\n\n    function issueEncryptedKey(bytes32 accessor, address account, bytes encryptedKey) public {\n        require(isAdmin(accessor, msg.sender));\n        require(canRead(accessor, account));\n        return _issueEncryptedKey(accessor, account, encryptedKey);\n    }\n\n    function removeOwner(bytes32 accessor, address account) public returns(uint8) {\n        require(msg.sender != account);\n        require(isOwner(accessor, account));\n        require(isOwner(accessor, msg.sender));\n        return _removeOwner(accessor, account);\n    }\n\n    function removeAdmin(bytes32 accessor, address account) public returns(uint8) {\n        require(msg.sender != account);\n        require(isAdmin(accessor, account));\n        require(isOwner(accessor, msg.sender));\n        return _removeAdmin(accessor, account);\n    }\n\n    function revokeWriteAccess(bytes32 accessor, address account) public returns(uint8) {\n        require(msg.sender != account);\n        require(canWrite(accessor, account));\n        if (isAdmin(accessor, account) || isOwner(accessor, account)) {\n            require(isOwner(accessor, msg.sender));\n        } else {\n            require(isAdmin(accessor, msg.sender));\n        }\n        return _revokeWriteAccess(accessor, account);\n    }\n\n    function revokeReadAccess(\n        bytes32 accessor,\n        address account\n        // bytes encryptedData,\n        // bytes encryptedKey\n    ) public returns(uint8) {\n        require(msg.sender != account);\n        require(canRead(accessor, account));\n        if (isAdmin(accessor, account) || isOwner(accessor, account)) {\n            require(isOwner(accessor, msg.sender));\n        } else {\n            require(isAdmin(accessor, msg.sender));\n        }\n        // return _revokeReadAccess(accessor, account, encryptedData, encryptedKey);\n        return _revokeReadAccess(accessor, account);\n    }\n\n    function setRegistration(string publicKey) public {\n        registration[msg.sender] = publicKey;\n        registered[msg.sender] = true;\n    }\n\n    function unRegister() public {\n        delete registration[msg.sender];\n        registered[msg.sender] = false;\n    }\n\n    function remove(bytes32 accessor) public {\n        require(isOwner(accessor, msg.sender));\n\n        delete data[accessor];\n        claimed[accessor] = false;\n\n        for (uint i = 0; i < members[accessor].accounts.length; i++) {\n            address member = members[accessor].accounts[i];\n\n            delete keys[accessor][member];\n            // delete owners[accessor][member];\n            // delete admins[accessor][member];\n            // delete writers[accessor][member];\n            // delete readers[accessor][member];\n        }\n        delete members[accessor];\n    }\n\n    // === GETTERS ===\n    //\n    function isOwner(bytes32 accessor, address account) public view returns(bool) {\n        return members[accessor].owners[account] > 0;\n    }\n\n    function isAdmin(bytes32 accessor, address account) public view returns(bool) {\n        return members[accessor].admins[account] > 0;\n    }\n\n    function canWrite(bytes32 accessor, address account) public view returns(bool) {\n        return members[accessor].writers[account] > 0;\n    }\n\n    function canRead(bytes32 accessor, address account) public view returns(bool) {\n        return members[accessor].readers[account] > 0;\n    }\n\n    function getKey(bytes32 accessor, address account) public view returns(bytes) {\n        return keys[accessor][account];\n    }\n\n    function getMembers(bytes32 accessor) public view returns(address[]) {\n        return members[accessor].accounts;\n    }\n\n    // === PRIVATE SETTERS ===\n    //\n    function _create(address account, bytes32 accessor, bytes encryptedData, bytes encryptedKey) private {\n        _claim(account, accessor);\n        _issueEncryptedKey(accessor, account, encryptedKey);\n        _write(accessor, encryptedData);\n    }\n\n    function _claim(address account, bytes32 accessor) private {\n        claimed[accessor] = true;\n        _addOwner(accessor, account);\n    }\n\n    function _write(bytes32 accessor, bytes encryptedData) private {\n        data[accessor] = encryptedData;\n    }\n\n    function _addOwner(bytes32 accessor, address account /*, bytes encryptedKey */) private returns(uint8) {\n        if (isOwner(accessor, account)) {\n            return members[accessor].owners[account];\n        }\n        // return members[accessor].owners[account] = _addAdmin(accessor, account, encryptedKey);\n        return members[accessor].owners[account] = _addAdmin(accessor, account);\n    }\n\n    function _addAdmin(bytes32 accessor, address account /*, bytes encryptedKey */) private returns(uint8) {\n        if (isAdmin(accessor, account)) {\n            return members[accessor].admins[account];\n        }\n        // return members[accessor].admins[account] = _grantWriteAccess(accessor, account, encryptedKey);\n        return members[accessor].admins[account] = _grantWriteAccess(accessor, account);\n    }\n\n    function _grantWriteAccess(bytes32 accessor, address account /*, bytes encryptedKey */) private returns(uint8) {\n        if (canWrite(accessor, account)) {\n            return members[accessor].writers[account];\n        }\n        // return members[accessor].writers[account] = _grantReadAccess(accessor, account, encryptedKey);\n        return members[accessor].writers[account] = _grantReadAccess(accessor, account);\n    }\n\n    function _grantReadAccess(bytes32 accessor, address account /*, bytes encryptedKey */) private returns(uint8) {\n        if (canRead(accessor, account)) {\n            return members[accessor].readers[account];\n        }\n        // _issueEncryptedKey(accessor, account, encryptedKey);\n        return members[accessor].readers[account] = _addMember(accessor, account);\n    }\n\n    function _issueEncryptedKey(bytes32 accessor, address account, bytes encryptedKey) private {\n        keys[accessor][account] = encryptedKey;\n    }\n\n    function _removeOwner(bytes32 accessor, address account) private returns(uint8) {\n        uint8 id = members[accessor].owners[account];\n        if (id < 1) {\n            return id;\n        }\n        delete members[accessor].owners[account];\n        return id;\n    }\n\n    function _removeAdmin(bytes32 accessor, address account) private returns(uint8) {\n        uint8 id = members[accessor].admins[account];\n        if (id < 1) {\n            return id;\n        }\n        delete members[accessor].admins[account];\n        _removeOwner(accessor, account);\n        return id;\n    }\n\n    function _revokeWriteAccess(bytes32 accessor, address account) private returns(uint8) {\n        uint8 id = members[accessor].writers[account];\n        if (id < 1) {\n            return id;\n        }\n        delete members[accessor].writers[account];\n        _removeAdmin(accessor, account);\n        return id;\n    }\n\n    function _revokeReadAccess(\n        bytes32 accessor,\n        address account\n        // bytes encryptedData,\n        // bytes encryptedKey\n    ) private returns(uint8) {\n        // _write(accessor, encryptedData);\n        // _issueEncryptedKey(accessor, msg.sender, encryptedKey);\n        uint8 id = _removeMember(accessor, account);\n        delete members[accessor].readers[account];\n        _revokeWriteAccess(accessor, account);\n        return id;\n    }\n\n    function _addMember(bytes32 accessor, address account) private returns(uint8) {\n        return uint8(members[accessor].accounts.push(account));\n    }\n\n    function _removeMember(bytes32 accessor, address account) private returns(uint8) {\n        uint8 index = id - 1;\n        if (index >= members[accessor].accounts.length) return 0;\n\n        MemberList storage m = members[accessor];\n        uint8 id = m.readers[account];\n\n        delete m.accounts[index];\n\n        if (index > 0) {\n            address lastAccount = m.accounts[m.accounts.length - 1];\n            m.accounts[index] = lastAccount;\n            _changeId(accessor, account, id);\n        }\n\n        m.accounts.length--;\n\n        return id;\n    }\n\n    function _changeId(bytes32 accessor, address account, uint8 id) private {\n        MemberList storage m = members[accessor];\n\n        if (isOwner(accessor, account)) {\n            m.owners[account] = id;\n        }\n        if (isAdmin(accessor, account)) {\n            m.admins[account] = id;\n        }\n        if (canWrite(accessor, account)) {\n            m.writers[account] = id;\n        }\n        if (canRead(accessor, account)) {\n            m.readers[account] = id;\n        }\n    }\n}\n",
  "sourcePath": "/home/julian/Development/eth-key-value/smart-contracts/contracts/KeyValueStore.sol",
  "compiler": {
    "name": "solc",
    "version": "0.4.24+commit.e67f0147.Emscripten.clang"
  },
  "schemaVersion": "2.0.1",
  "updatedAt": "2018-11-05T14:10:39.402Z"
}