{
  "contractName": "KeyValueStore",
  "abi": [
    {
      "constant": true,
      "inputs": [
        {
          "name": "",
          "type": "bytes32"
        }
      ],
      "name": "data",
      "outputs": [
        {
          "name": "",
          "type": "bytes"
        }
      ],
      "payable": false,
      "stateMutability": "view",
      "type": "function"
    },
    {
      "constant": true,
      "inputs": [
        {
          "name": "",
          "type": "bytes32"
        },
        {
          "name": "",
          "type": "address"
        }
      ],
      "name": "owners",
      "outputs": [
        {
          "name": "",
          "type": "uint8"
        }
      ],
      "payable": false,
      "stateMutability": "view",
      "type": "function"
    },
    {
      "constant": true,
      "inputs": [
        {
          "name": "",
          "type": "address"
        }
      ],
      "name": "registration",
      "outputs": [
        {
          "name": "",
          "type": "string"
        }
      ],
      "payable": false,
      "stateMutability": "view",
      "type": "function"
    },
    {
      "constant": true,
      "inputs": [
        {
          "name": "",
          "type": "bytes32"
        },
        {
          "name": "",
          "type": "address"
        }
      ],
      "name": "keys",
      "outputs": [
        {
          "name": "",
          "type": "bytes"
        }
      ],
      "payable": false,
      "stateMutability": "view",
      "type": "function"
    },
    {
      "constant": true,
      "inputs": [
        {
          "name": "",
          "type": "bytes32"
        },
        {
          "name": "",
          "type": "address"
        }
      ],
      "name": "readers",
      "outputs": [
        {
          "name": "",
          "type": "uint8"
        }
      ],
      "payable": false,
      "stateMutability": "view",
      "type": "function"
    },
    {
      "constant": true,
      "inputs": [
        {
          "name": "",
          "type": "bytes32"
        },
        {
          "name": "",
          "type": "address"
        }
      ],
      "name": "admins",
      "outputs": [
        {
          "name": "",
          "type": "uint8"
        }
      ],
      "payable": false,
      "stateMutability": "view",
      "type": "function"
    },
    {
      "constant": true,
      "inputs": [
        {
          "name": "",
          "type": "bytes32"
        },
        {
          "name": "",
          "type": "uint256"
        }
      ],
      "name": "members",
      "outputs": [
        {
          "name": "",
          "type": "address"
        }
      ],
      "payable": false,
      "stateMutability": "view",
      "type": "function"
    },
    {
      "constant": true,
      "inputs": [
        {
          "name": "",
          "type": "address"
        }
      ],
      "name": "registered",
      "outputs": [
        {
          "name": "",
          "type": "bool"
        }
      ],
      "payable": false,
      "stateMutability": "view",
      "type": "function"
    },
    {
      "constant": true,
      "inputs": [
        {
          "name": "",
          "type": "bytes32"
        },
        {
          "name": "",
          "type": "address"
        }
      ],
      "name": "writers",
      "outputs": [
        {
          "name": "",
          "type": "uint8"
        }
      ],
      "payable": false,
      "stateMutability": "view",
      "type": "function"
    },
    {
      "constant": true,
      "inputs": [
        {
          "name": "",
          "type": "bytes32"
        }
      ],
      "name": "created",
      "outputs": [
        {
          "name": "",
          "type": "bool"
        }
      ],
      "payable": false,
      "stateMutability": "view",
      "type": "function"
    },
    {
      "constant": false,
      "inputs": [
        {
          "name": "account",
          "type": "address"
        },
        {
          "name": "accessor",
          "type": "bytes32"
        },
        {
          "name": "encryptedData",
          "type": "bytes"
        },
        {
          "name": "encryptedKey",
          "type": "bytes"
        }
      ],
      "name": "create",
      "outputs": [],
      "payable": false,
      "stateMutability": "nonpayable",
      "type": "function"
    },
    {
      "constant": false,
      "inputs": [
        {
          "name": "accessor",
          "type": "bytes32"
        },
        {
          "name": "encryptedData",
          "type": "bytes"
        }
      ],
      "name": "write",
      "outputs": [],
      "payable": false,
      "stateMutability": "nonpayable",
      "type": "function"
    },
    {
      "constant": false,
      "inputs": [
        {
          "name": "accessor",
          "type": "bytes32"
        },
        {
          "name": "account",
          "type": "address"
        },
        {
          "name": "encryptedKey",
          "type": "bytes"
        }
      ],
      "name": "addOwner",
      "outputs": [
        {
          "name": "",
          "type": "uint8"
        }
      ],
      "payable": false,
      "stateMutability": "nonpayable",
      "type": "function"
    },
    {
      "constant": false,
      "inputs": [
        {
          "name": "accessor",
          "type": "bytes32"
        },
        {
          "name": "account",
          "type": "address"
        },
        {
          "name": "encryptedKey",
          "type": "bytes"
        }
      ],
      "name": "addAdmin",
      "outputs": [
        {
          "name": "",
          "type": "uint8"
        }
      ],
      "payable": false,
      "stateMutability": "nonpayable",
      "type": "function"
    },
    {
      "constant": false,
      "inputs": [
        {
          "name": "accessor",
          "type": "bytes32"
        },
        {
          "name": "account",
          "type": "address"
        },
        {
          "name": "encryptedKey",
          "type": "bytes"
        }
      ],
      "name": "grantWriteAccess",
      "outputs": [
        {
          "name": "",
          "type": "uint8"
        }
      ],
      "payable": false,
      "stateMutability": "nonpayable",
      "type": "function"
    },
    {
      "constant": false,
      "inputs": [
        {
          "name": "accessor",
          "type": "bytes32"
        },
        {
          "name": "account",
          "type": "address"
        },
        {
          "name": "encryptedKey",
          "type": "bytes"
        }
      ],
      "name": "grantReadAccess",
      "outputs": [
        {
          "name": "",
          "type": "uint8"
        }
      ],
      "payable": false,
      "stateMutability": "nonpayable",
      "type": "function"
    },
    {
      "constant": false,
      "inputs": [
        {
          "name": "accessor",
          "type": "bytes32"
        },
        {
          "name": "account",
          "type": "address"
        },
        {
          "name": "encryptedKey",
          "type": "bytes"
        }
      ],
      "name": "issueEncryptedKey",
      "outputs": [],
      "payable": false,
      "stateMutability": "nonpayable",
      "type": "function"
    },
    {
      "constant": false,
      "inputs": [
        {
          "name": "accessor",
          "type": "bytes32"
        },
        {
          "name": "account",
          "type": "address"
        }
      ],
      "name": "removeOwner",
      "outputs": [
        {
          "name": "",
          "type": "uint8"
        }
      ],
      "payable": false,
      "stateMutability": "nonpayable",
      "type": "function"
    },
    {
      "constant": false,
      "inputs": [
        {
          "name": "accessor",
          "type": "bytes32"
        },
        {
          "name": "account",
          "type": "address"
        }
      ],
      "name": "removeAdmin",
      "outputs": [
        {
          "name": "",
          "type": "uint8"
        }
      ],
      "payable": false,
      "stateMutability": "nonpayable",
      "type": "function"
    },
    {
      "constant": false,
      "inputs": [
        {
          "name": "accessor",
          "type": "bytes32"
        },
        {
          "name": "account",
          "type": "address"
        }
      ],
      "name": "revokeWriteAccess",
      "outputs": [
        {
          "name": "",
          "type": "uint8"
        }
      ],
      "payable": false,
      "stateMutability": "nonpayable",
      "type": "function"
    },
    {
      "constant": false,
      "inputs": [
        {
          "name": "accessor",
          "type": "bytes32"
        },
        {
          "name": "account",
          "type": "address"
        },
        {
          "name": "encryptedData",
          "type": "bytes"
        },
        {
          "name": "encryptedKey",
          "type": "bytes"
        }
      ],
      "name": "revokeReadAccess",
      "outputs": [
        {
          "name": "",
          "type": "uint8"
        }
      ],
      "payable": false,
      "stateMutability": "nonpayable",
      "type": "function"
    },
    {
      "constant": false,
      "inputs": [
        {
          "name": "publicKey",
          "type": "string"
        }
      ],
      "name": "setRegistration",
      "outputs": [],
      "payable": false,
      "stateMutability": "nonpayable",
      "type": "function"
    },
    {
      "constant": false,
      "inputs": [],
      "name": "unRegister",
      "outputs": [],
      "payable": false,
      "stateMutability": "nonpayable",
      "type": "function"
    },
    {
      "constant": false,
      "inputs": [
        {
          "name": "accessor",
          "type": "bytes32"
        }
      ],
      "name": "remove",
      "outputs": [],
      "payable": false,
      "stateMutability": "nonpayable",
      "type": "function"
    },
    {
      "constant": true,
      "inputs": [
        {
          "name": "accessor",
          "type": "bytes32"
        },
        {
          "name": "account",
          "type": "address"
        }
      ],
      "name": "isOwner",
      "outputs": [
        {
          "name": "",
          "type": "bool"
        }
      ],
      "payable": false,
      "stateMutability": "view",
      "type": "function"
    },
    {
      "constant": true,
      "inputs": [
        {
          "name": "accessor",
          "type": "bytes32"
        },
        {
          "name": "account",
          "type": "address"
        }
      ],
      "name": "isAdmin",
      "outputs": [
        {
          "name": "",
          "type": "bool"
        }
      ],
      "payable": false,
      "stateMutability": "view",
      "type": "function"
    },
    {
      "constant": true,
      "inputs": [
        {
          "name": "accessor",
          "type": "bytes32"
        },
        {
          "name": "account",
          "type": "address"
        }
      ],
      "name": "canWrite",
      "outputs": [
        {
          "name": "",
          "type": "bool"
        }
      ],
      "payable": false,
      "stateMutability": "view",
      "type": "function"
    },
    {
      "constant": true,
      "inputs": [
        {
          "name": "accessor",
          "type": "bytes32"
        },
        {
          "name": "account",
          "type": "address"
        }
      ],
      "name": "canRead",
      "outputs": [
        {
          "name": "",
          "type": "bool"
        }
      ],
      "payable": false,
      "stateMutability": "view",
      "type": "function"
    },
    {
      "constant": true,
      "inputs": [
        {
          "name": "accessor",
          "type": "bytes32"
        },
        {
          "name": "account",
          "type": "address"
        }
      ],
      "name": "getKey",
      "outputs": [
        {
          "name": "",
          "type": "bytes"
        }
      ],
      "payable": false,
      "stateMutability": "view",
      "type": "function"
    },
    {
      "constant": true,
      "inputs": [
        {
          "name": "accessor",
          "type": "bytes32"
        }
      ],
      "name": "getMembers",
      "outputs": [
        {
          "name": "",
          "type": "address[]"
        }
      ],
      "payable": false,
      "stateMutability": "view",
      "type": "function"
    }
  ],
  "bytecode": "0x608060405234801561001057600080fd5b50612fba806100206000396000f300608060405260043610610180576000357c0100000000000000000000000000000000000000000000000000000000900463ffffffff1680630147fb0c146101855780630583151d1461022f5780630840605a1461029a578063245fedc91461035657806326d7b3b414610407578063282e373b1461041e5780632903b8ee146104cf5780632b9c190c146105995780632ff4e6db146106045780633fb566711461066f5780634aca186f146106d85780635984932d1461076f578063788cb11b146107da5780637b641fbc1461085157806388eea6f1146108d75780638f1ac1751461094257806392beb2a1146109ab57806395bc267314610a265780639a387ce614610a57578063a5bdb29714610ac2578063b1ff123714610b73578063b2dd5c0714610c24578063b75dbb8e14610c7f578063baf81f6514610ce8578063c5cc599314610db2578063c9ae0cec14610e1d578063cb44e05414610efa578063cd98de8514610ff1578063eaa760c21461105a578063ecd53bf3146110a3575b600080fd5b34801561019157600080fd5b506101b4600480360381019080803560001916906020019092919050505061110c565b6040518080602001828103825283818151815260200191508051906020019080838360005b838110156101f45780820151818401526020810190506101d9565b50505050905090810190601f1680156102215780820380516001836020036101000a031916815260200191505b509250505060405180910390f35b34801561023b57600080fd5b5061027e6004803603810190808035600019169060200190929190803573ffffffffffffffffffffffffffffffffffffffff1690602001909291905050506111bc565b604051808260ff1660ff16815260200191505060405180910390f35b3480156102a657600080fd5b506102db600480360381019080803573ffffffffffffffffffffffffffffffffffffffff1690602001909291905050506111eb565b6040518080602001828103825283818151815260200191508051906020019080838360005b8381101561031b578082015181840152602081019050610300565b50505050905090810190601f1680156103485780820380516001836020036101000a031916815260200191505b509250505060405180910390f35b34801561036257600080fd5b506103eb6004803603810190808035600019169060200190929190803573ffffffffffffffffffffffffffffffffffffffff169060200190929190803590602001908201803590602001908080601f016020809104026020016040519081016040528093929190818152602001838380828437820191505050505050919291929050505061129b565b604051808260ff1660ff16815260200191505060405180910390f35b34801561041357600080fd5b5061041c6112c6565b005b34801561042a57600080fd5b506104b36004803603810190808035600019169060200190929190803573ffffffffffffffffffffffffffffffffffffffff169060200190929190803590602001908201803590602001908080601f016020809104026020016040519081016040528093929190818152602001838380828437820191505050505050919291929050505061136b565b604051808260ff1660ff16815260200191505060405180910390f35b3480156104db57600080fd5b5061051e6004803603810190808035600019169060200190929190803573ffffffffffffffffffffffffffffffffffffffff169060200190929190505050611396565b6040518080602001828103825283818151815260200191508051906020019080838360005b8381101561055e578082015181840152602081019050610543565b50505050905090810190601f16801561058b5780820380516001836020036101000a031916815260200191505b509250505060405180910390f35b3480156105a557600080fd5b506105e86004803603810190808035600019169060200190929190803573ffffffffffffffffffffffffffffffffffffffff169060200190929190505050611453565b604051808260ff1660ff16815260200191505060405180910390f35b34801561061057600080fd5b506106536004803603810190808035600019169060200190929190803573ffffffffffffffffffffffffffffffffffffffff1690602001909291905050506114cc565b604051808260ff1660ff16815260200191505060405180910390f35b34801561067b57600080fd5b506106be6004803603810190808035600019169060200190929190803573ffffffffffffffffffffffffffffffffffffffff1690602001909291905050506114fb565b604051808215151515815260200191505060405180910390f35b3480156106e457600080fd5b5061076d6004803603810190808035600019169060200190929190803573ffffffffffffffffffffffffffffffffffffffff169060200190929190803590602001908201803590602001908080601f0160208091040260200160405190810160405280939291908181526020018383808284378201915050505050509192919290505050611570565b005b34801561077b57600080fd5b506107be6004803603810190808035600019169060200190929190803573ffffffffffffffffffffffffffffffffffffffff1690602001909291905050506115aa565b604051808260ff1660ff16815260200191505060405180910390f35b3480156107e657600080fd5b5061084f6004803603810190808035600019169060200190929190803590602001908201803590602001908080601f01602080910402602001604051908101604052809392919081815260200183838082843782019150505050505091929192905050506115d9565b005b34801561085d57600080fd5b5061088060048036038101908080356000191690602001909291905050506115fc565b6040518080602001828103825283818151815260200191508051906020019060200280838360005b838110156108c35780820151818401526020810190506108a8565b505050509050019250505060405180910390f35b3480156108e357600080fd5b506109266004803603810190808035600019169060200190929190803573ffffffffffffffffffffffffffffffffffffffff1690602001909291905050506116a5565b604051808260ff1660ff16815260200191505060405180910390f35b34801561094e57600080fd5b506109916004803603810190808035600019169060200190929190803573ffffffffffffffffffffffffffffffffffffffff169060200190929190505050611759565b604051808215151515815260200191505060405180910390f35b3480156109b757600080fd5b506109e46004803603810190808035600019169060200190929190803590602001909291905050506117ce565b604051808273ffffffffffffffffffffffffffffffffffffffff1673ffffffffffffffffffffffffffffffffffffffff16815260200191505060405180910390f35b348015610a3257600080fd5b50610a55600480360381019080803560001916906020019092919050505061181b565b005b348015610a6357600080fd5b50610aa66004803603810190808035600019169060200190929190803573ffffffffffffffffffffffffffffffffffffffff169060200190929190505050611b4a565b604051808260ff1660ff16815260200191505060405180910390f35b348015610ace57600080fd5b50610b576004803603810190808035600019169060200190929190803573ffffffffffffffffffffffffffffffffffffffff169060200190929190803590602001908201803590602001908080601f0160208091040260200160405190810160405280939291908181526020018383808284378201915050505050509192919290505050611bc3565b604051808260ff1660ff16815260200191505060405180910390f35b348015610b7f57600080fd5b50610c086004803603810190808035600019169060200190929190803573ffffffffffffffffffffffffffffffffffffffff169060200190929190803590602001908201803590602001908080601f0160208091040260200160405190810160405280939291908181526020018383808284378201915050505050509192919290505050611bee565b604051808260ff1660ff16815260200191505060405180910390f35b348015610c3057600080fd5b50610c65600480360381019080803573ffffffffffffffffffffffffffffffffffffffff169060200190929190505050611c19565b604051808215151515815260200191505060405180910390f35b348015610c8b57600080fd5b50610cce6004803603810190808035600019169060200190929190803573ffffffffffffffffffffffffffffffffffffffff169060200190929190505050611c39565b604051808215151515815260200191505060405180910390f35b348015610cf457600080fd5b50610d376004803603810190808035600019169060200190929190803573ffffffffffffffffffffffffffffffffffffffff169060200190929190505050611cae565b6040518080602001828103825283818151815260200191508051906020019080838360005b83811015610d77578082015181840152602081019050610d5c565b50505050905090810190601f168015610da45780820380516001836020036101000a031916815260200191505b509250505060405180910390f35b348015610dbe57600080fd5b50610e016004803603810190808035600019169060200190929190803573ffffffffffffffffffffffffffffffffffffffff169060200190929190505050611da9565b604051808260ff1660ff16815260200191505060405180910390f35b348015610e2957600080fd5b50610ef8600480360381019080803573ffffffffffffffffffffffffffffffffffffffff1690602001909291908035600019169060200190929190803590602001908201803590602001908080601f0160208091040260200160405190810160405280939291908181526020018383808284378201915050505050509192919290803590602001908201803590602001908080601f0160208091040260200160405190810160405280939291908181526020018383808284378201915050505050509192919290505050611dd8565b005b348015610f0657600080fd5b50610fd56004803603810190808035600019169060200190929190803573ffffffffffffffffffffffffffffffffffffffff169060200190929190803590602001908201803590602001908080601f0160208091040260200160405190810160405280939291908181526020018383808284378201915050505050509192919290803590602001908201803590602001908080601f0160208091040260200160405190810160405280939291908181526020018383808284378201915050505050509192919290505050611e1f565b604051808260ff1660ff16815260200191505060405180910390f35b348015610ffd57600080fd5b506110406004803603810190808035600019169060200190929190803573ffffffffffffffffffffffffffffffffffffffff169060200190929190505050611ed7565b604051808215151515815260200191505060405180910390f35b34801561106657600080fd5b506110896004803603810190808035600019169060200190929190505050611f4c565b604051808215151515815260200191505060405180910390f35b3480156110af57600080fd5b5061110a600480360381019080803590602001908201803590602001908080601f0160208091040260200160405190810160405280939291908181526020018383808284378201915050505050509192919290505050611f6c565b005b60006020528060005260406000206000915090508054600181600116156101000203166002900480601f0160208091040260200160405190810160405280929190818152602001828054600181600116156101000203166002900480156111b45780601f10611189576101008083540402835291602001916111b4565b820191906000526020600020905b81548152906001019060200180831161119757829003601f168201915b505050505081565b60056020528160005260406000206020528060005260406000206000915091509054906101000a900460ff1681565b60036020528060005260406000206000915090508054600181600116156101000203166002900480601f0160208091040260200160405190810160405280929190818152602001828054600181600116156101000203166002900480156112935780601f1061126857610100808354040283529160200191611293565b820191906000526020600020905b81548152906001019060200180831161127657829003601f168201915b505050505081565b60006112a78433611c39565b15156112b257600080fd5b6112bd84848461201b565b90509392505050565b600360003373ffffffffffffffffffffffffffffffffffffffff1673ffffffffffffffffffffffffffffffffffffffff16815260200190815260200160002060006113119190612d8c565b6000600460003373ffffffffffffffffffffffffffffffffffffffff1673ffffffffffffffffffffffffffffffffffffffff16815260200190815260200160002060006101000a81548160ff021916908315150217905550565b60006113778433611c39565b151561138257600080fd5b61138d848484612127565b90509392505050565b6002602052816000526040600020602052806000526040600020600091509150508054600181600116156101000203166002900480601f01602080910402602001604051908101604052809291908181526020018280546001816001161561010002031660029004801561144b5780601f106114205761010080835404028352916020019161144b565b820191906000526020600020905b81548152906001019060200180831161142e57829003601f168201915b505050505081565b60008173ffffffffffffffffffffffffffffffffffffffff163373ffffffffffffffffffffffffffffffffffffffff161415151561149057600080fd5b61149a83836114fb565b15156114a557600080fd5b6114af83336114fb565b15156114ba57600080fd5b6114c48383612229565b905092915050565b60086020528160005260406000206020528060005260406000206000915091509054906101000a900460ff1681565b60008060056000856000191660001916815260200190815260200160002060008473ffffffffffffffffffffffffffffffffffffffff1673ffffffffffffffffffffffffffffffffffffffff16815260200190815260200160002060009054906101000a900460ff1660ff1611905092915050565b61157a8333611c39565b151561158557600080fd5b61158f8383611ed7565b151561159a57600080fd5b6115a5838383612325565b505050565b60066020528160005260406000206020528060005260406000206000915091509054906101000a900460ff1681565b6115e38233611759565b15156115ee57600080fd5b6115f88282612397565b5050565b606060096000836000191660001916815260200190815260200160002080548060200260200160405190810160405280929190818152602001828054801561169957602002820191906000526020600020905b8160009054906101000a900473ffffffffffffffffffffffffffffffffffffffff1673ffffffffffffffffffffffffffffffffffffffff168152602001906001019080831161164f575b50505050509050919050565b60008173ffffffffffffffffffffffffffffffffffffffff163373ffffffffffffffffffffffffffffffffffffffff16141515156116e257600080fd5b6116ec8383611759565b15156116f757600080fd5b6117018383611c39565b80611712575061171183836114fb565b5b156117315761172183336114fb565b151561172c57600080fd5b611747565b61173b8333611c39565b151561174657600080fd5b5b61175183836123ca565b905092915050565b60008060076000856000191660001916815260200190815260200160002060008473ffffffffffffffffffffffffffffffffffffffff1673ffffffffffffffffffffffffffffffffffffffff16815260200190815260200160002060009054906101000a900460ff1660ff1611905092915050565b6009602052816000526040600020818154811015156117e957fe5b906000526020600020016000915091509054906101000a900473ffffffffffffffffffffffffffffffffffffffff1681565b60008061182883336114fb565b151561183357600080fd5b600080846000191660001916815260200190815260200160002060006118599190612dd4565b600060016000856000191660001916815260200190815260200160002060006101000a81548160ff021916908315150217905550600091505b60096000846000191660001916815260200190815260200160002080549050821015611b1e57600960008460001916600019168152602001908152602001600020828154811015156118e057fe5b9060005260206000200160009054906101000a900473ffffffffffffffffffffffffffffffffffffffff16905060026000846000191660001916815260200190815260200160002060008273ffffffffffffffffffffffffffffffffffffffff1673ffffffffffffffffffffffffffffffffffffffff16815260200190815260200160002060006119719190612dd4565b60056000846000191660001916815260200190815260200160002060008273ffffffffffffffffffffffffffffffffffffffff1673ffffffffffffffffffffffffffffffffffffffff16815260200190815260200160002060006101000a81549060ff021916905560066000846000191660001916815260200190815260200160002060008273ffffffffffffffffffffffffffffffffffffffff1673ffffffffffffffffffffffffffffffffffffffff16815260200190815260200160002060006101000a81549060ff021916905560076000846000191660001916815260200190815260200160002060008273ffffffffffffffffffffffffffffffffffffffff1673ffffffffffffffffffffffffffffffffffffffff16815260200190815260200160002060006101000a81549060ff021916905560086000846000191660001916815260200190815260200160002060008273ffffffffffffffffffffffffffffffffffffffff1673ffffffffffffffffffffffffffffffffffffffff16815260200190815260200160002060006101000a81549060ff02191690558180600101925050611892565b6009600084600019166000191681526020019081526020016000206000611b459190612e1c565b505050565b60008173ffffffffffffffffffffffffffffffffffffffff163373ffffffffffffffffffffffffffffffffffffffff1614151515611b8757600080fd5b611b918383611c39565b1515611b9c57600080fd5b611ba683336114fb565b1515611bb157600080fd5b611bbb83836124cf565b905092915050565b6000611bcf84336114fb565b1515611bda57600080fd5b611be58484846125d4565b90509392505050565b6000611bfa84336114fb565b1515611c0557600080fd5b611c108484846126d6565b90509392505050565b60046020528060005260406000206000915054906101000a900460ff1681565b60008060066000856000191660001916815260200190815260200160002060008473ffffffffffffffffffffffffffffffffffffffff1673ffffffffffffffffffffffffffffffffffffffff16815260200190815260200160002060009054906101000a900460ff1660ff1611905092915050565b606060026000846000191660001916815260200190815260200160002060008373ffffffffffffffffffffffffffffffffffffffff1673ffffffffffffffffffffffffffffffffffffffff1681526020019081526020016000208054600181600116156101000203166002900480601f016020809104026020016040519081016040528092919081815260200182805460018160011615610100020316600290048015611d9c5780601f10611d7157610100808354040283529160200191611d9c565b820191906000526020600020905b815481529060010190602001808311611d7f57829003601f168201915b5050505050905092915050565b60076020528160005260406000206020528060005260406000206000915091509054906101000a900460ff1681565b60016000846000191660001916815260200190815260200160002060009054906101000a900460ff16151515611e0d57600080fd5b611e19848484846127d8565b50505050565b60008373ffffffffffffffffffffffffffffffffffffffff163373ffffffffffffffffffffffffffffffffffffffff1614151515611e5c57600080fd5b611e668585611ed7565b1515611e7157600080fd5b611e7b8585611c39565b80611e8c5750611e8b85856114fb565b5b15611eab57611e9b85336114fb565b1515611ea657600080fd5b611ec1565b611eb58533611c39565b1515611ec057600080fd5b5b611ecd85858585612827565b9050949350505050565b60008060086000856000191660001916815260200190815260200160002060008473ffffffffffffffffffffffffffffffffffffffff1673ffffffffffffffffffffffffffffffffffffffff16815260200190815260200160002060009054906101000a900460ff1660ff1611905092915050565b60016020528060005260406000206000915054906101000a900460ff1681565b80600360003373ffffffffffffffffffffffffffffffffffffffff1673ffffffffffffffffffffffffffffffffffffffff1681526020019081526020016000209080519060200190611fbf929190612e3d565b506001600460003373ffffffffffffffffffffffffffffffffffffffff1673ffffffffffffffffffffffffffffffffffffffff16815260200190815260200160002060006101000a81548160ff02191690831515021790555050565b60006120278484611ed7565b156120995760086000856000191660001916815260200190815260200160002060008473ffffffffffffffffffffffffffffffffffffffff1673ffffffffffffffffffffffffffffffffffffffff16815260200190815260200160002060009054906101000a900460ff169050612120565b6120a4848484612325565b6120ae84846128cf565b60086000866000191660001916815260200190815260200160002060008573ffffffffffffffffffffffffffffffffffffffff1673ffffffffffffffffffffffffffffffffffffffff16815260200190815260200160002060006101000a81548160ff021916908360ff160217905590505b9392505050565b60006121338484611759565b156121a55760076000856000191660001916815260200190815260200160002060008473ffffffffffffffffffffffffffffffffffffffff1673ffffffffffffffffffffffffffffffffffffffff16815260200190815260200160002060009054906101000a900460ff169050612222565b6121b084848461201b565b60076000866000191660001916815260200190815260200160002060008573ffffffffffffffffffffffffffffffffffffffff1673ffffffffffffffffffffffffffffffffffffffff16815260200190815260200160002060006101000a81548160ff021916908360ff160217905590505b9392505050565b60008060056000856000191660001916815260200190815260200160002060008473ffffffffffffffffffffffffffffffffffffffff1673ffffffffffffffffffffffffffffffffffffffff16815260200190815260200160002060009054906101000a900460ff16905060018160ff1610156122a85780915061231e565b600060056000866000191660001916815260200190815260200160002060008573ffffffffffffffffffffffffffffffffffffffff1673ffffffffffffffffffffffffffffffffffffffff16815260200190815260200160002060006101000a81548160ff021916908360ff1602179055508091505b5092915050565b8060026000856000191660001916815260200190815260200160002060008473ffffffffffffffffffffffffffffffffffffffff1673ffffffffffffffffffffffffffffffffffffffff1681526020019081526020016000209080519060200190612391929190612ebd565b50505050565b80600080846000191660001916815260200190815260200160002090805190602001906123c5929190612ebd565b505050565b60008060076000856000191660001916815260200190815260200160002060008473ffffffffffffffffffffffffffffffffffffffff1673ffffffffffffffffffffffffffffffffffffffff16815260200190815260200160002060009054906101000a900460ff16905060018160ff161015612449578091506124c8565b600060076000866000191660001916815260200190815260200160002060008573ffffffffffffffffffffffffffffffffffffffff1673ffffffffffffffffffffffffffffffffffffffff16815260200190815260200160002060006101000a81548160ff021916908360ff1602179055506124c584846124cf565b91505b5092915050565b60008060066000856000191660001916815260200190815260200160002060008473ffffffffffffffffffffffffffffffffffffffff1673ffffffffffffffffffffffffffffffffffffffff16815260200190815260200160002060009054906101000a900460ff16905060018160ff16101561254e578091506125cd565b600060066000866000191660001916815260200190815260200160002060008573ffffffffffffffffffffffffffffffffffffffff1673ffffffffffffffffffffffffffffffffffffffff16815260200190815260200160002060006101000a81548160ff021916908360ff1602179055506125ca8484612229565b91505b5092915050565b60006125e084846114fb565b156126525760056000856000191660001916815260200190815260200160002060008473ffffffffffffffffffffffffffffffffffffffff1673ffffffffffffffffffffffffffffffffffffffff16815260200190815260200160002060009054906101000a900460ff1690506126cf565b61265d8484846126d6565b60056000866000191660001916815260200190815260200160002060008573ffffffffffffffffffffffffffffffffffffffff1673ffffffffffffffffffffffffffffffffffffffff16815260200190815260200160002060006101000a81548160ff021916908360ff160217905590505b9392505050565b60006126e28484611c39565b156127545760066000856000191660001916815260200190815260200160002060008473ffffffffffffffffffffffffffffffffffffffff1673ffffffffffffffffffffffffffffffffffffffff16815260200190815260200160002060009054906101000a900460ff1690506127d1565b61275f848484612127565b60066000866000191660001916815260200190815260200160002060008573ffffffffffffffffffffffffffffffffffffffff1673ffffffffffffffffffffffffffffffffffffffff16815260200190815260200160002060006101000a81548160ff021916908360ff160217905590505b9392505050565b6001806000856000191660001916815260200190815260200160002060006101000a81548160ff0219169083151502179055506128158383612397565b6128208385836125d4565b5050505050565b60006128338584612397565b61283e853384612325565b6128488585612957565b50600060086000876000191660001916815260200190815260200160002060008673ffffffffffffffffffffffffffffffffffffffff1673ffffffffffffffffffffffffffffffffffffffff16815260200190815260200160002060006101000a81548160ff021916908360ff1602179055506128c585856123ca565b9050949350505050565b60006009600084600019166000191681526020019081526020016000208290806001815401808255809150509060018203906000526020600020016000909192909190916101000a81548173ffffffffffffffffffffffffffffffffffffffff021916908373ffffffffffffffffffffffffffffffffffffffff160217905550905092915050565b60008060008060086000876000191660001916815260200190815260200160002060008673ffffffffffffffffffffffffffffffffffffffff1673ffffffffffffffffffffffffffffffffffffffff16815260200190815260200160002060009054906101000a900460ff169250600183039150600960008760001916600019168152602001908152602001600020805490508260ff161015156129fa57612b7a565b6009600087600019166000191681526020019081526020016000208260ff16815481101515612a2557fe5b9060005260206000200160006101000a81549073ffffffffffffffffffffffffffffffffffffffff021916905560096000876000191660001916815260200190815260200160002060016009600089600019166000191681526020019081526020016000208054905003815481101515612a9b57fe5b9060005260206000200160009054906101000a900473ffffffffffffffffffffffffffffffffffffffff169050806009600088600019166000191681526020019081526020016000208360ff16815481101515612af457fe5b9060005260206000200160006101000a81548173ffffffffffffffffffffffffffffffffffffffff021916908373ffffffffffffffffffffffffffffffffffffffff160217905550612b47868685612b83565b600960008760001916600019168152602001908152602001600020805480919060019003612b759190612f3d565b508293505b50505092915050565b612b8d83836114fb565b15612c04578060056000856000191660001916815260200190815260200160002060008473ffffffffffffffffffffffffffffffffffffffff1673ffffffffffffffffffffffffffffffffffffffff16815260200190815260200160002060006101000a81548160ff021916908360ff1602179055505b612c0e8383611c39565b15612c85578060066000856000191660001916815260200190815260200160002060008473ffffffffffffffffffffffffffffffffffffffff1673ffffffffffffffffffffffffffffffffffffffff16815260200190815260200160002060006101000a81548160ff021916908360ff1602179055505b612c8f8383611759565b15612d06578060076000856000191660001916815260200190815260200160002060008473ffffffffffffffffffffffffffffffffffffffff1673ffffffffffffffffffffffffffffffffffffffff16815260200190815260200160002060006101000a81548160ff021916908360ff1602179055505b612d108383611ed7565b15612d87578060086000856000191660001916815260200190815260200160002060008473ffffffffffffffffffffffffffffffffffffffff1673ffffffffffffffffffffffffffffffffffffffff16815260200190815260200160002060006101000a81548160ff021916908360ff1602179055505b505050565b50805460018160011615610100020316600290046000825580601f10612db25750612dd1565b601f016020900490600052602060002090810190612dd09190612f69565b5b50565b50805460018160011615610100020316600290046000825580601f10612dfa5750612e19565b601f016020900490600052602060002090810190612e189190612f69565b5b50565b5080546000825590600052602060002090810190612e3a9190612f69565b50565b828054600181600116156101000203166002900490600052602060002090601f016020900481019282601f10612e7e57805160ff1916838001178555612eac565b82800160010185558215612eac579182015b82811115612eab578251825591602001919060010190612e90565b5b509050612eb99190612f69565b5090565b828054600181600116156101000203166002900490600052602060002090601f016020900481019282601f10612efe57805160ff1916838001178555612f2c565b82800160010185558215612f2c579182015b82811115612f2b578251825591602001919060010190612f10565b5b509050612f399190612f69565b5090565b815481835581811115612f6457818360005260206000209182019101612f639190612f69565b5b505050565b612f8b91905b80821115612f87576000816000905550600101612f6f565b5090565b905600a165627a7a72305820651fa6f7783af0cbfd9839e15fd11c586dbd00509de979bd9af882a06d5793560029",
  "source": "pragma solidity ^0.4.24;\n\n\ncontract KeyValueStore {\n    mapping (bytes32 => bytes) public data;\n    mapping (bytes32 => bool) public created;\n\n    mapping (bytes32 => mapping (address => bytes)) public keys;\n\n    mapping (address => string) public registration;\n    mapping (address => bool) public registered;\n\n    mapping (bytes32 => mapping (address => uint8)) public owners;\n    mapping (bytes32 => mapping (address => uint8)) public admins;\n    mapping (bytes32 => mapping (address => uint8)) public writers;\n    mapping (bytes32 => mapping (address => uint8)) public readers;\n    mapping (bytes32 => address[]) public members;\n\n    function create(address account, bytes32 accessor, bytes encryptedData, bytes encryptedKey) public {\n        require(!created[accessor]);\n        _create(account, accessor, encryptedData, encryptedKey);\n    }\n\n    function write(bytes32 accessor, bytes encryptedData) public {\n        require(canWrite(accessor, msg.sender));\n        _write(accessor, encryptedData);\n    }\n\n    function addOwner(bytes32 accessor, address account, bytes encryptedKey) public returns(uint8) {\n        require(isOwner(accessor, msg.sender));\n        return _addOwner(accessor, account, encryptedKey);\n    }\n\n    function addAdmin(bytes32 accessor, address account, bytes encryptedKey) public returns(uint8) {\n        require(isOwner(accessor, msg.sender));\n        return _addAdmin(accessor, account, encryptedKey);\n    }\n\n    function grantWriteAccess(bytes32 accessor, address account, bytes encryptedKey) public returns(uint8) {\n        require(isAdmin(accessor, msg.sender));\n        return _grantWriteAccess(accessor, account, encryptedKey);\n    }\n\n    function grantReadAccess(bytes32 accessor, address account, bytes encryptedKey) public returns(uint8) {\n        require(isAdmin(accessor, msg.sender));\n        return _grantReadAccess(accessor, account, encryptedKey);\n    }\n\n    function issueEncryptedKey(bytes32 accessor, address account, bytes encryptedKey) public {\n        require(isAdmin(accessor, msg.sender));\n        require(canRead(accessor, account));\n        return _issueEncryptedKey(accessor, account, encryptedKey);\n    }\n\n    function removeOwner(bytes32 accessor, address account) public returns(uint8) {\n        require(msg.sender != account);\n        require(isOwner(accessor, account));\n        require(isOwner(accessor, msg.sender));\n        return _removeOwner(accessor, account);\n    }\n\n    function removeAdmin(bytes32 accessor, address account) public returns(uint8) {\n        require(msg.sender != account);\n        require(isAdmin(accessor, account));\n        require(isOwner(accessor, msg.sender));\n        return _removeAdmin(accessor, account);\n    }\n\n    function revokeWriteAccess(bytes32 accessor, address account) public returns(uint8) {\n        require(msg.sender != account);\n        require(canWrite(accessor, account));\n        if (isAdmin(accessor, account) || isOwner(accessor, account)) {\n            require(isOwner(accessor, msg.sender));\n        } else {\n            require(isAdmin(accessor, msg.sender));\n        }\n        return _revokeWriteAccess(accessor, account);\n    }\n\n    function revokeReadAccess(\n        bytes32 accessor,\n        address account,\n        bytes encryptedData,\n        bytes encryptedKey\n    ) public returns(uint8) {\n        require(msg.sender != account);\n        require(canRead(accessor, account));\n        if (isAdmin(accessor, account) || isOwner(accessor, account)) {\n            require(isOwner(accessor, msg.sender));\n        } else {\n            require(isAdmin(accessor, msg.sender));\n        }\n        return _revokeReadAccess(accessor, account, encryptedData, encryptedKey);\n    }\n\n    function setRegistration(string publicKey) public {\n        registration[msg.sender] = publicKey;\n        registered[msg.sender] = true;\n    }\n\n    function unRegister() public {\n        delete registration[msg.sender];\n        registered[msg.sender] = false;\n    }\n\n    function remove(bytes32 accessor) public {\n        require(isOwner(accessor, msg.sender));\n\n        delete data[accessor];\n        created[accessor] = false;\n\n        for (uint i = 0; i < members[accessor].length; i++) {\n            address member = members[accessor][i];\n\n            delete keys[accessor][member];\n            delete owners[accessor][member];\n            delete admins[accessor][member];\n            delete writers[accessor][member];\n            delete readers[accessor][member];\n        }\n        delete members[accessor];\n    }\n\n    // === GETTERS ===\n    //\n    function isOwner(bytes32 accessor, address account) public view returns(bool) {\n        return owners[accessor][account] > 0;\n    }\n\n    function isAdmin(bytes32 accessor, address account) public view returns(bool) {\n        return admins[accessor][account] > 0;\n    }\n\n    function canWrite(bytes32 accessor, address account) public view returns(bool) {\n        return writers[accessor][account] > 0;\n    }\n\n    function canRead(bytes32 accessor, address account) public view returns(bool) {\n        return readers[accessor][account] > 0;\n    }\n\n    function getKey(bytes32 accessor, address account) public view returns(bytes) {\n        return keys[accessor][account];\n    }\n\n    function getMembers(bytes32 accessor) public view returns(address[]) {\n        return members[accessor];\n    }\n\n    // === PRIVATE SETTERS ===\n    //\n    function _create(address account, bytes32 accessor, bytes encryptedData, bytes encryptedKey) private {\n        created[accessor] = true;\n        _write(accessor, encryptedData);\n        _addOwner(accessor, account, encryptedKey);\n    }\n\n    function _write(bytes32 accessor, bytes encryptedData) private {\n        data[accessor] = encryptedData;\n    }\n\n    function _addOwner(bytes32 accessor, address account, bytes encryptedKey) private returns(uint8) {\n        if (isOwner(accessor, account)) {\n            return owners[accessor][account];\n        }\n        return owners[accessor][account] = _addAdmin(accessor, account, encryptedKey);\n    }\n\n    function _addAdmin(bytes32 accessor, address account, bytes encryptedKey) private returns(uint8) {\n        if (isAdmin(accessor, account)) {\n            return admins[accessor][account];\n        }\n        return admins[accessor][account] = _grantWriteAccess(accessor, account, encryptedKey);\n    }\n\n    function _grantWriteAccess(bytes32 accessor, address account, bytes encryptedKey) private returns(uint8) {\n        if (canWrite(accessor, account)) {\n            return writers[accessor][account];\n        }\n        return writers[accessor][account] = _grantReadAccess(accessor, account, encryptedKey);\n    }\n\n    function _grantReadAccess(bytes32 accessor, address account, bytes encryptedKey) private returns(uint8) {\n        if (canRead(accessor, account)) {\n            return readers[accessor][account];\n        }\n        _issueEncryptedKey(accessor, account, encryptedKey);\n        return readers[accessor][account] = _addMember(accessor, account);\n    }\n\n    function _issueEncryptedKey(bytes32 accessor, address account, bytes encryptedKey) private {\n        keys[accessor][account] = encryptedKey;\n    }\n\n    function _removeOwner(bytes32 accessor, address account) private returns(uint8) {\n        uint8 id = owners[accessor][account];\n        if (id < 1) {\n            return id;\n        }\n        owners[accessor][account] = 0;\n        return id;\n    }\n\n    function _removeAdmin(bytes32 accessor, address account) private returns(uint8) {\n        uint8 id = admins[accessor][account];\n        if (id < 1) {\n            return id;\n        }\n        admins[accessor][account] = 0;\n        return _removeOwner(accessor, account);\n    }\n\n    function _revokeWriteAccess(bytes32 accessor, address account) private returns(uint8) {\n        uint8 id = writers[accessor][account];\n        if (id < 1) {\n            return id;\n        }\n        writers[accessor][account] = 0;\n        return _removeAdmin(accessor, account);\n    }\n\n    function _revokeReadAccess(\n        bytes32 accessor,\n        address account,\n        bytes encryptedData,\n        bytes encryptedKey\n    ) private returns(uint8) {\n        _write(accessor, encryptedData);\n        _issueEncryptedKey(accessor, msg.sender, encryptedKey);\n        _removeMember(accessor, account);\n        readers[accessor][account] = 0;\n        return _revokeWriteAccess(accessor, account);\n    }\n\n    function _addMember(bytes32 accessor, address account) private returns(uint8) {\n        return uint8(members[accessor].push(account));\n    }\n\n    function _removeMember(bytes32 accessor, address account) private returns(uint8) {\n        uint8 id = readers[accessor][account];\n        uint8 index = id - 1;\n        if (index >= members[accessor].length) return;\n\n        delete members[accessor][index];\n\n        address lastAccount = members[accessor][members[accessor].length - 1];\n        members[accessor][index] = lastAccount;\n        _changeId(accessor, account, id);\n\n        members[accessor].length--;\n\n        return id;\n    }\n\n    function _changeId(bytes32 accessor, address account, uint8 id) private {\n        if (isOwner(accessor, account)) {\n            owners[accessor][account] = id;\n        }\n        if (isAdmin(accessor, account)) {\n            admins[accessor][account] = id;\n        }\n        if (canWrite(accessor, account)) {\n            writers[accessor][account] = id;\n        }\n        if (canRead(accessor, account)) {\n            readers[accessor][account] = id;\n        }\n    }\n}\n",
  "sourcePath": "/home/julian/Development/eth-key-value/smart-contracts/contracts/KeyValueStore.sol",
  "compiler": {
    "name": "solc",
    "version": "0.4.24+commit.e67f0147.Emscripten.clang"
  },
  "schemaVersion": "2.0.1",
  "updatedAt": "2018-11-06T15:19:27.878Z"
}